:020000020000FC
:10000000A1C111C011C011C011C011C011C016C0D2
:1000100022C022C022C022C022C022C022C090C062
:1000200090C090C090C0189518951895189518957F
:100030000FB70F9360620F910FBF18950FB70F9313
:10004000C098849902C0949A02C0949800C06064D9
:100050000F910FBF18951895189518951895189524
:100060001895AF93BF93CF93DF93EF93FF930F93C5
:100070003F934F935F931F932F930FB70F9307B146
:10008000102F389839983A983B9817701F9313950A
:10009000183019F411271093D500087F010F07B904
:1000A0000F910A950F3F09F407E00F934DD02D9063
:1000B0003D904D905D906D907D917D908D909D9047
:1000C000AD908D919D9104B115B13327200E311E55
:1000D000431E01963EEF4FE08317940720F06260C5
:1000E0008827992764D00F910093D5000F932CD0C7
:1000F0002D923D924D925D926D927D937D928D9267
:100100009D92AD928D939D9304B115B1071518057D
:1001100020F009151A0508F411F49FD001C0C4D0CD
:100120000F910F910FBF2F911F915F914F913F91B1
:100130000F91FF91EF91DF91CF91BF91AF91189502
:1001400018951895189518953CE044275527501791
:1001500019F0430F5395FBCFA0E6B0E0A40F0027A2
:10016000B01F089500E004BB0FEF05BB0FEF07BB06
:100170000FEF08BB0FEF01BB0FEF02BBC09806E00B
:10018000A8950CE509BF01E003BFA89504E005BDF3
:1001900000E407B90FEE06B900E100BF08E10AB9B3
:1001A0000CE030E009B930BD0FE800BD0895AF9311
:1001B000BF93CF93DF93EF93FF930F933F934F93AF
:1001C0005F931F932F930FB70F93002703954694C8
:1001D00037940430D9F7532C642C2224332444243C
:1001E000A52DB62D0A2F1B2F169507951695079549
:1001F000083010F408E01127A01BB10B7A2E8B2ECB
:1002000010F477248824A52DB62DA00FB11F9A2EA7
:10021000AB2E18F40FEF902EA02E0F910FBF2F9141
:100220001F915F914F913F910F91FF91EF91DF915E
:10023000CF91BF91AF9108955D9902C07894FCCFA2
:100240000CB910270895BEB7ADB7D0E0C0E60027BF
:100250000E93CA17DB07E0F308951091D6000091C2
:10026000D500003071F0013071F0023071F00330D0
:1002700071F0043071F0053071F0063071F0073024
:1002800071F011600EC012600CC014600AC01860DA
:1002900008C0106106C0106204C0106402C010687B
:1002A00000C01093D60008951091D6000091D5009B
:1002B000003071F0013071F0023071F0033071F0F4
:1002C000043071F0053071F0063071F0073071F0D4
:1002D0001E7F0EC01D7F0CC01B7F0AC0177F08C089
:1002E0001F7E06C01F7D04C01F7B02C01F7700C099
:1002F0001093D60008951091D9000091D5000030D8
:1003000071F0013071F0023071F0033071F004309F
:1003100071F0053071F0063071F0073071F0116046
:100320000EC012600CC014600AC0186008C01061D2
:1003300006C0106204C0106402C0106800C01093B0
:10034000D9000895F8940FE50DBF04E00EBF7BDFE0
:1003500009DF78941091D600103021F566FF02C0B5
:10036000C09A1EC064FD02C03DD0F4CF829902C085
:10037000929A02C0929800C065FF0AC066FF0FC043
:10038000839902C0939A02C0939800C0C09808C095
:10039000849902C0949A02C0949800C001C013D0FE
:1003A00021D0D8CF64FDD6CF606100E00CBD0DBD7B
:1003B00004E00EBD08EC10E01BBD0ABD02E11AE727
:1003C00019BD08BDC7CFC198859902C0959A02C0D2
:1003D000959800C00F93002703950F3FE9F70F9101
:1003E000C19A089500E00EBD0CBD0DBD6F7E6F7B00
:0403F0006F7D089580
:00000001FF
